:020000040800F2
:1000000000500020BD3A0008093000080B300008FD
:100010000D3000080F30000811300008000000000B
:100020000000000000000000000000001330000885
:1000300015300008000000001730000819300008D3
:10004000053B0008053B0008053B0008053B000890
:10005000053B0008053B0008053B0008053B000880
:10006000053B0008053B0008053B0008053B000870
:10007000053B0008053B0008053B0008053B000860
:10008000053B0008053B0008053B0008053B000850
:10009000053B0008053B0008053B0008053B000840
:1000A000053B0008053B0008053B0008053B000830
:1000B000053B0008053B0008053B0008053B000820
:1000C000053B0008053B0008053B0008053B000810
:1000D000053B0008053B0008053B0008053B000800
:1000E000053B0008053B0008053B00080000000038
:1000F0000000000000000000000000000000000000
:0C01000000000000000000005FF808F1A3
:1001100010B5054C237833B9044B13B10448AFF341
:1001200000800123237010BDE800002000000000C3
:10013000C868000808B5034B1BB103490348AFF377
:10014000008008BD00000000EC000020C868000826
:10015000034613F8012B002AFBD1181A0138704707
:1001600081F0004102E000BF83F0004330B54FEA68
:1001700041044FEA430594EA050F08BF90EA020FD5
:100180001FBF54EA000C55EA020C7FEA645C7FEA68
:10019000655C00F0E2804FEA5454D4EB5555B8BF8B
:1001A0006D420CDD2C4480EA020281EA030382EAFC
:1001B000000083EA010180EA020281EA0303362D8E
:1001C00088BF30BD11F0004F4FEA01314FF4801C61
:1001D0004CEA113102D0404261EB410113F0004F73
:1001E0004FEA03334CEA133302D0524263EB43032A
:1001F00094EA050F00F0A780A4F10104D5F1200EC8
:100200000DDB02FA0EFC22FA05F2801841F1000122
:1002100003FA0EF2801843FA05F359410EE0A5F1F6
:1002200020050EF1200E012A03FA0EFC28BF4CF027
:10023000020C43FA05F3C01851EBE37101F00045DD
:1002400007D54FF0000EDCF1000C7EEB00006EEBEA
:100250000101B1F5801F1BD3B1F5001F0CD3490874
:100260005FEA30004FEA3C0C04F101044FEA4452CB
:1002700012F5800F80F09A80BCF1004F08BF5FEA52
:10028000500C50F1000041EB045141EA050130BD32
:100290005FEA4C0C404141EB010111F4801FA4F1D5
:1002A0000104E9D191F0000F04BF01460020B1FA2A
:1002B00081F308BF2033A3F10B03B3F120020CDA62
:1002C0000C3208DD02F1140CC2F10C0201FA0CF040
:1002D00021FA02F10CE002F11402D8BFC2F1200CA5
:1002E00001FA02F120FA0CFCDCBF41EA0C0190405B
:1002F000E41AA2BF01EB0451294330BD6FEA0404A4
:100300001F3C1CDA0C340EDC04F11404C4F120028E
:1003100020FA04F001FA02F340EA030021FA04F3A0
:1003200045EA030130BDC4F10C04C4F1200220FAF7
:1003300002F001FA04F340EA0300294630BD21FA35
:1003400004F0294630BD94F0000F83F4801306BFFB
:1003500081F480110134013D4EE77FEA645C18BFEF
:100360007FEA655C29D094EA050F08BF90EA020F86
:1003700005D054EA000C04BF1946104630BD91EA7E
:10038000030F1EBF0021002030BD5FEA545C05D181
:100390004000494128BF41F0004130BD14F58004C0
:1003A0003CBF01F5801130BD01F0004545F0FE4134
:1003B00041F470014FF0000030BD7FEA645C1ABF69
:1003C000194610467FEA655C1CBF0B46024650EAA0
:1003D000013406BF52EA033591EA030F41F40021CC
:1003E00030BD00BF90F0000F04BF0021704730B552
:1003F0004FF4806404F132044FF000054FF0000127
:1004000050E700BF90F0000F04BF0021704730B5E7
:100410004FF4806404F1320410F0004548BF4042BC
:100420004FF000013EE700BF42004FEAE2014FEA11
:1004300031014FEA02701FBF12F07F4393F07F4FEC
:1004400081F06051704732F07F4208BF704793F0EF
:100450007F4F04BF41F40021704730B54FF4607402
:1004600001F0004521F000411CE700BF50EA010205
:1004700008BF704730B54FF000050AE050EA0102AE
:1004800008BF704730B511F0004502D5404261EB1E
:1004900041014FF4806404F132045FEA915C3FF45F
:1004A000D8AE4FF003025FEADC0C18BF03325FEAFC
:1004B000DC0C18BF033202EBDC02C2F1200300FAAD
:1004C00003FC20FA02F001FA03FE40EA0E0021FAD2
:1004D00002F11444BDE600BF70B54FF0FF0C4CF4C0
:1004E000E06C1CEA11541DBF1CEA135594EA0C0F72
:1004F00095EA0C0F00F0DEF82C4481EA030621EAAD
:100500004C5123EA4C5350EA013518BF52EA0335E7
:1005100041F4801143F4801338D0A0FB02CE4FF099
:100520000005E1FB02E506F00042E0FB03E54FF0C9
:100530000006E1FB03569CF0000F18BF4EF0010EC1
:10054000A4F1FF04B6F5007F64F5407404D25FEABD
:100550004E0E6D4146EB060642EAC62141EA555170
:100560004FEAC52040EA5E504FEACE2EB4F1FD0CB2
:1005700088BFBCF5E06F1ED8BEF1004F08BF5FEA30
:10058000500E50F1000041EB045170BD06F00046E2
:1005900046EA010140EA020081EA0301B4EB5C048F
:1005A000C2BFD4EB0C0541EA045170BD41F4801187
:1005B0004FF0000E013C00F3AB8014F1360FDEBFAC
:1005C000002001F0004170BDC4F10004203C35DA88
:1005D0000C341BDC04F11404C4F1200500FA05F30B
:1005E00020FA04F001FA05F240EA020001F00042AC
:1005F00021F0004110EBD37021FA04F642EB060122
:100600005EEA430E08BF20EAD37070BDC4F10C044B
:10061000C4F1200500FA04F320FA05F001FA04F20F
:1006200040EA020001F0004110EBD37041F10001FB
:100630005EEA430E08BF20EAD37070BDC4F1200506
:1006400000FA05F24EEA020E20FA04F301FA05F26E
:1006500043EA020321FA04F001F0004121FA04F216
:1006600020EA020000EBD3705EEA430E08BF20EAE6
:10067000D37070BD94F0000F0FD101F00046400020
:1006800041EB010111F4801F08BF013CF7D041EAA2
:10069000060195F0000F18BF704703F000465200A6
:1006A00043EB030313F4801F08BF013DF7D043EA77
:1006B0000603704794EA0C0F0CEA135518BF95EA2D
:1006C0000C0F0CD050EA410618BF52EA4306D1D1B4
:1006D00081EA030101F000414FF0000070BD50EAD3
:1006E000410606BF1046194652EA430619D094EA5D
:1006F0000C0F02D150EA013613D195EA0C0F05D147
:1007000052EA03361CBF104619460AD181EA03019A
:1007100001F0004141F0FE4141F470014FF0000052
:1007200070BD41F0FE4141F4780170BD70B54FF0ED
:10073000FF0C4CF4E06C1CEA11541DBF1CEA13556D
:1007400094EA0C0F95EA0C0F00F0A7F8A4EB05044F
:1007500081EA030E52EA03354FEA013100F0888046
:100760004FEA03334FF0805545EA131343EA12630F
:100770004FEA022245EA111545EA10654FEA0026C4
:100780000EF000419D4208BF964244F1FD0404F57D
:10079000407402D25B084FEA3202B61A65EB0305D9
:1007A0005B084FEA32024FF480104FF4002CB6EB96
:1007B000020E75EB030E22BFB61A754640EA0C0016
:1007C0005B084FEA3202B6EB020E75EB030E22BF56
:1007D000B61A754640EA5C005B084FEA3202B6EB97
:1007E000020E75EB030E22BFB61A754640EA9C0056
:1007F0005B084FEA3202B6EB020E75EB030E22BF26
:10080000B61A754640EADC0055EA060E18D04FEAE3
:10081000051545EA16754FEA06164FEAC30343EA83
:1008200052734FEAC2025FEA1C1CC0D111F4801F50
:100830000BD141EA00014FF000004FF0004CB6E749
:1008400011F4801F04BF01430020B4F1FD0C88BFE8
:10085000BCF5E06F3FF6AFAEB5EB030C04BFB6EBF3
:10086000020C5FEA500C50F1000041EB045170BDE6
:100870000EF0004E4EEA113114EB5C04C2BFD4EB13
:100880000C0541EA045170BD41F480114FF0000E97
:10089000013C90E645EA060E8DE60CEA135594EA13
:1008A0000C0F08BF95EA0C0F3FF43BAF94EA0C0F16
:1008B0000AD150EA01347FF434AF95EA0C0F7FF48B
:1008C00025AF104619462CE795EA0C0F06D152EADF
:1008D00003353FF4FDAE1046194622E750EA4106C3
:1008E00018BF52EA43067FF4C5AE50EA41047FF4D4
:1008F0000DAF52EA43057FF4EBAE12E74FF0FF3C39
:1009000006E000BF4FF0010C02E000BF4FF0010C09
:100910004DF804CD4FEA410C7FEA6C5C4FEA430C82
:1009200018BF7FEA6C5C1BD001B050EA410C0CBFD1
:1009300052EA430C91EA030F02BF90EA020F002033
:10094000704710F1000F91EA030F58BF994208BF9A
:1009500090422CBFD8176FEAE37040F00100704757
:100960004FEA410C7FEA6C5C02D150EA013C07D1AE
:100970004FEA430C7FEA6C5CD6D152EA033CD3D0F9
:100980005DF8040B704700BF8446104662468C46F3
:100990001946634600E000BF01B5FFF7B7FF002826
:1009A00048BF10F1000F01BD4DF808EDFFF7F4FF4F
:1009B0000CBF012000205DF808FB00BF4DF808EDDA
:1009C000FFF7EAFF34BF012000205DF808FB00BFFD
:1009D0004DF808EDFFF7E0FF94BF012000205DF81F
:1009E00008FB00BF4DF808EDFFF7CEFF94BF0120D4
:1009F00000205DF808FB00BF4DF808EDFFF7C4FFCD
:100A000034BF012000205DF808FB00BF4FEA410C15
:100A10007FEA6C5C02D150EA013C0AD14FEA430CF8
:100A20007FEA6C5C02D152EA033C02D14FF0000035
:100A300070474FF0010070474FEA410212F5001273
:100A400015D211D56FF47873B3EB625212D94FEA15
:100A5000C12343F0004343EA505311F0004F23FAFF
:100A600002F018BF404270474FF00000704750EA54
:100A7000013005D111F0004008BF6FF00040704711
:100A80004FF00000704700BF4A0011D212F500126B
:100A900011D20DD56FF47873B3EB62520ED44FEAD6
:100AA000C12343F0004343EA505323FA02F0704756
:100AB0004FF00000704750EA013002D14FF0FF3094
:100AC00070474FF0000070474FEA4102B2F1E04337
:100AD00024BFB3F5001CDCF1FE5C0DD901F0004C25
:100AE0004FEAC0024CEA5070B2F1004F40EB830075
:100AF00008BF20F00100704711F0804F21D113F1A1
:100B00003872BCBF01F00040704741F480114FEAD9
:100B10005252C2F11802C2F1200C10FA0CF320FA62
:100B200002F018BF40F001004FEAC1234FEAD3237F
:100B300003FA0CFC40EA0C0023FA02F34FEA4303E9
:100B4000CCE77FEA625307D150EA01331EBF4FF072
:100B5000FE4040F44000704701F0004040F0FE408D
:100B600040F40000704700BF80F0004002E000BF8A
:100B700081F0004142001FBF5FEA410392EA030F88
:100B80007FEA226C7FEA236C6AD04FEA1262D2EBD2
:100B90001363C1BFD218414048404140B8BF5B42D7
:100BA000192B88BF704710F0004F40F4000020F070
:100BB0007F4018BF404211F0004F41F4000121F086
:100BC0007F4118BF494292EA030F3FD0A2F10102D0
:100BD00041FA03FC10EB0C00C3F1200301FA03F10E
:100BE00000F0004302D5494260EB4000B0F5000F31
:100BF00013D3B0F1807F06D340084FEA310102F1F0
:100C00000102FE2A51D2B1F1004F40EBC25008BFA1
:100C100020F0010040EA03007047490040EB00006B
:100C200010F4000FA2F10102EDD1B0FA80FCACF19A
:100C3000080CB2EB0C0200FA0CF0AABF00EBC25099
:100C400052421843BCBFD0401843704792F0000F87
:100C500081F4000106BF80F400000132013BB5E7DA
:100C60004FEA41037FEA226C18BF7FEA236C21D050
:100C700092EA030F04D092F0000F08BF08467047B5
:100C800090EA010F1CBF0020704712F07F4F04D183
:100C9000400028BF40F00040704712F100723CBF96
:100CA00000F50000704700F0004343F0FE4040F4C0
:100CB000000070477FEA226216BF08467FEA23637E
:100CC0000146420206BF5FEA412390EA010F40F469
:100CD000800070474FF0000304E000BF10F00043B5
:100CE00048BF40425FEA000C08BF704743F096439C
:100CF00001464FF000001CE050EA010208BF7047B7
:100D00004FF000030AE000BF50EA010208BF70473D
:100D100011F0004302D5404261EB41015FEA010C52
:100D200002BF84460146002043F0B64308BFA3F14A
:100D30008053A3F50003BCFA8CF2083AA3EBC2532C
:100D400010DB01FA02FC634400FA02FCC2F120024B
:100D5000BCF1004F20FA02F243EB020008BF20F082
:100D60000100704702F1200201FA02FCC2F12002E8
:100D700050EA4C0021FA02F243EB020008BF20EADD
:100D8000DC7070474FF0FF0C1CEAD0521EBF1CEA0B
:100D9000D15392EA0C0F93EA0C0F6FD01A4480EAF9
:100DA000010C400218BF5FEA41211ED04FF00063E2
:100DB00043EA501043EA5111A0FB01310CF000400E
:100DC000B1F5000F3EBF490041EAD3715B0040EA34
:100DD000010062F17F02FD2A1DD8B3F1004F40EB04
:100DE000C25008BF20F00100704790F0000F0CF0D7
:100DF000004C08BF49024CEA502040EA51207F3A9B
:100E0000C2BFD2F1FF0340EAC250704740F4000075
:100E10004FF00003013A5DDC12F1190FDCBF00F066
:100E200000407047C2F10002410021FA02F1C2F114
:100E3000200200FA02FC5FEA310040F1000053EAB0
:100E40004C0308BF20EADC70704792F0000F00F0FE
:100E5000004C02BF400010F4000F013AF9D040EA04
:100E60000C0093F0000F01F0004C02BF490011F498
:100E7000000F013BF9D041EA0C018FE70CEAD15396
:100E800092EA0C0F18BF93EA0C0F0AD030F0004C16
:100E900018BF31F0004CD8D180EA010000F00040CA
:100EA000704790F0000F17BF90F0004F084691F088
:100EB000000F91F0004F14D092EA0C0F01D14202C2
:100EC0000FD193EA0C0F03D14B0218BF084608D18B
:100ED00080EA010000F0004040F0FE4040F40000D5
:100EE000704740F0FE4040F4400070474FF0FF0C68
:100EF0001CEAD0521EBF1CEAD15392EA0C0F93EAAF
:100F00000C0F69D0A2EB030280EA010C49024FEA00
:100F1000402037D04FF0805343EA111143EA1013B9
:100F20000CF000408B4238BF5B0042F17D024FF471
:100F3000000C8B4224BF5B1A40EA0C00B3EB510F4C
:100F400024BFA3EB510340EA5C00B3EB910F24BF35
:100F5000A3EB910340EA9C00B3EBD10F24BFA3EBBA
:100F6000D10340EADC001B0118BF5FEA1C1CE0D182
:100F7000FD2A3FF650AF8B4240EBC25008BF20F035
:100F8000010070470CF0004C4CEA50207F32C2BF89
:100F9000D2F1FF0340EAC250704740F400004FF026
:100FA0000003013A37E792F0000F00F0004C02BF57
:100FB000400010F4000F013AF9D040EA0C0093F021
:100FC000000F01F0004C02BF490011F4000F013B7B
:100FD000F9D041EA0C0195E70CEAD15392EA0C0FE3
:100FE00008D142027FF47DAF93EA0C0F7FF470AF1B
:100FF000084676E793EA0C0F04D14B023FF44CAF5E
:1010000008466EE730F0004C18BF31F0004CCAD1F2
:1010100030F000427FF45CAF31F000437FF43CAF2E
:101020005FE700BF53B94AB9002908BF00281CBFB9
:101030004FF0FF314FF0FF3000F074B9ADF1080C04
:101040006DE904CE00F006F8DDF804E0DDE90223E6
:1010500004B070472DE9F0478C460446089E002BEB
:101060004BD18A42154667D9B2FA82F24AB1C2F12F
:10107000200701FA02F320FA07F7954047EA030C2C
:1010800094404FEA154EBCFBFEF71FFA85F80EFBA5
:1010900017C307FB08F9210C41EA0343994509D915
:1010A000EB1807F1FF3180F01C81994540F219815E
:1010B000023F2B44A3EB0903B3FBFEF00EFB1033FE
:1010C00000FB08F1A4B244EA0344A14209D92C1957
:1010D00000F1FF3380F00781A14240F20481023821
:1010E0002C4440EA07400027641A1EB10023D44074
:1010F000C6E900433946BDE8F0878B4209D9002E86
:1011000000F0EC800027C6E9000138463946BDE80A
:10111000F087B3FA83F7002F48D18B4202D3824283
:1011200000F2FB80841A61EB030301209C46002E31
:10113000E0D0C6E9004CDDE702B9FFDEB2FA82F288
:10114000002A40F08F800127491B4FEA15481FFAFB
:1011500085F9B1FBF8FE08FB1E1109FB0EF04FEA02
:10116000144C4CEA0143984207D9EB180EF1FF31B9
:1011700002D2984200F2CD808E461B1AB3FBF8F0E3
:1011800008FB103309FB00F9A4B244EA0344A1456B
:1011900007D92C1900F1FF3302D2A14500F2B68025
:1011A0001846A4EB090440EA0E409EE7C7F120056B
:1011B000BB4022FA05FC4CEA030C21FA05F44FEA85
:1011C0001C4EB4FBFEF91FFA8CF80EFB194420FAF2
:1011D00005F3B94009FB08FA19430B0C43EA044430
:1011E000A24502FA07F200FA07F30BD91CEB04043C
:1011F00009F1FF3080F08880A24540F28580A9F196
:1012000002096444A4EB0A04B4FBFEF00EFB104494
:1012100000FB08FA89B241EA0444A24508D91CEB54
:10122000040400F1FF316BD2A24569D9023864444D
:1012300040EA0940A0FB0289A4EB0A044C45414660
:10124000CE4654D351D0002E69D05A1A64EB0E0406
:1012500004FA05F522FA07F3FC401D43C6E90054E1
:10126000002747E79540C2F1200321FA03F04FEA37
:101270001548B0FBF8F71FFA85F908FB170024FAA8
:1012800003F3914007FB09FC0B43190C41EA0041B1
:101290008C4504FA02F407D9691807F1FF3031D2FE
:1012A0008C452FD9023F2944A1EB0C01B1FBF8F08A
:1012B00008FB101C00FB09FE99B241EA0C418E4567
:1012C00007D9691800F1FF3318D28E4516D90238B4
:1012D0002944A1EB0E0140EA07473AE7374630467A
:1012E00008E70F46E6E61846FBE64345ABD2B8EB07
:1012F000020169EB0C0201389646A4E71846E8E7BC
:10130000084695E70746CFE781467BE702382C443D
:1013100047E7AEF1020E2B442FE7384607E7374682
:10132000E8E600BF704700BF00283CD010B5044677
:101330000023836290F85130002B31D0022384F8CF
:1013400051302268136823F0400313606368A26879
:101350001343E26813432269134362691343A2698A
:1013600002F400721343E2691343226A1343A16A31
:1013700022680B431360638B03F00403616A2268E5
:101380000B4353602368E26A1A612268D36923F42D
:101390000063D36100206065012384F8513010BDE3
:1013A00001F018FCCAE70120704700002DE9F04168
:1013B00088B0364B9A6942F010029A619A6902F03D
:1013C00010020092009A9A6942F020029A619A698A
:1013D00002F020020192019A9A6942F004029A6195
:1013E0009A6902F004020292029A9A6942F0080293
:1013F0009A619B6903F008030393039BDFF89880CD
:1014000000224FF40051404601F08AFD204E002298
:101410001021304601F084FD1E4D00224FF4B041F2
:10142000284601F07DFD4FF40053049301270597F2
:101430000224079404A9404601F088FC1023049379
:10144000059707940DEB0301304601F07FFC4FF444
:10145000B04304930597079404A9284601F076FC4D
:101460004FF43063049300270597069404A930468F
:1014700001F06CFC182304930597069404A92846F0
:1014800001F064FC08B0BDE8F08100BF001002402C
:1014900000080140000C01400010014010B584B06C
:1014A0000F4C4FF48013236101238DF80C30E0239F
:1014B0008DF80D30FF238DF80E3064230093032345
:1014C00002AA03A901F0E0FE102323619DF8093070
:1014D0001B0203F470639DF80A00184304B010BDAA
:1014E0000008014008B513460A460146014801F0CC
:1014F000F8FD08BD5C02002008B50146FFF742FC7C
:1015000008BD10B582B002AB03E903000098FFF7F5
:10151000F3FF04460198FFF7EFFF01462046FFF76F
:1015200029FBFEF781FF03F061FDFFF7CDFA02B062
:1015300010BD000038B5264B1868C11700F07FFDBC
:10154000244B186001F022FD234B186000241FE09B
:101550002248FFF7A3FFFEF745FF0022204BFEF7CE
:1015600003FE1C4B1B689D6800224FF07E53FEF764
:10157000B3FFFFF7A9FA45F834001A4B1A681A4B63
:101580001A60194A1368591E1160002BF9D10134F1
:101590000F4B1B68A342DBDC01F0F8FC0E4C236808
:1015A000C01A124B186001F0F1FC2060104B1B6850
:1015B0003BB101F0EBFC084B1B68C01A0D4B1860E7
:1015C00038BD044B1946186800F0AEFEF1E700BFC5
:1015D000580000202C02002034020020B402002019
:1015E0000000A04008000020200100202801002069
:1015F0002802002024010020FEE7000008B50F4863
:101600000F4B03604FF48273436000238360C36019
:10161000036143614FF4007282612822C261036258
:10162000436283620A23C362FFF77EFE00B908BDEE
:101630004FF4A6710348FFF7DFFF00BFB40200209C
:1016400000300140F468000808B50F480F4B0360F4
:101650004FF4827343604FF4004383600023C36000
:10166000036143614FF400728261C36103624362AC
:1016700083620A23C362FFF757FE00B908BD4FF427
:10168000B2710348FFF7B8FF5C0200200038004049
:10169000F468000800B591B0012206924FF480333F
:1016A0000793002108910A9202220D920E934FF4A3
:1016B000E0130F9306A801F019FF08BB0F23019355
:1016C00002210291002303934FF480620492059358
:1016D00001A802F031F9C0B902F0EAF90D4BA3FB01
:1016E0000030800901F006FB042001F019FB002204
:1016F00011464FF0FF3001F0C9FA11B05DF804FB5C
:101700004FF48E710448FFF777FF4FF4957102484C
:10171000FFF772FFD34D6210F46800082DE9F04F17
:1017200083B0A34C0B21204600F064FE0C21204620
:1017300000F06AFE0E21204600F070FE01F00CFC65
:10174000FFF7A8FFFFF732FEFFF758FFFFF77CFF18
:10175000642001F021FC00F023FF964C2346012277
:101760000021084601F002F900F0E2FE4FF4FA60B1
:1017700001F012FC904B01220021084601F0F6F81E
:1017800000F0D6FE4FF47A7001F006FC002000F065
:10179000F3FE234601220021084601F0E7F8874BBB
:1017A00001221821002001F0E1F800F0C1FE4FF401
:1017B0007A7001F0F1FB824B01222821002001F018
:1017C000D5F800F0B5FE4FF47A7001F0E5FB7D4BE3
:1017D00000223821104601F0C9F800F0A9FE4FF4AC
:1017E000FA6001F0D9FBFFF7A5FE79E1764B002204
:1017F0009A607FE1754B1B68032B03D00133734A5A
:1018000013607CE1714B00221A6078E16E4B00227C
:10181000DA607EE16E4B1B686BB16E4B00221A6082
:101820006D4B00206D49C3E900016D4B1B682BB166
:101830006B4B1A6077E1FFF77DFE74E1684B012284
:101840001A6070E101230193664B00930623052281
:101850000021772001F002F9FFF76CFE63E15A4B9B
:1018600000221A6169E15A4B1B681BB1584B0022D8
:101870001A6067E1564B01221A6063E1DBF8002031
:101880005949284602F03CFDA000C0B25044314600
:1018900000962B460222C0B201F0A1F8F5E1534DAB
:1018A000534B1A685049284602F02AFDA000C0B2E6
:1018B0000130002100912B460222C0B201F08FF8C6
:1018C000E3E1454BD3E90001FFF7DEF8474D02465F
:1018D0004849284602F014FDA000C0B201300021A2
:1018E00000912B460222C0B201F079F8CDE13F4DC4
:1018F000414B1A683C49284602F002FDA000C0B2E4
:101900000130002100912B460222C0B201F067F89D
:10191000BBE12E4B1B68032B16D8DFE803F0020F48
:101920001923294B1B682B4A12681344324A126848
:10193000803A934208DC274A136005E0224B19687D
:101940002B4A13680B4413601F4B00221A60B6E148
:10195000214C0022294BD4E90001FEF7BDFDC4E96A
:101960000001F1E7184B1B68234A12681344B3F5D2
:10197000006FE9DC204A1360E6E7144B1B68032B79
:1019800047D8DFE803F0020B3D4A0F4B5A68114B72
:101990001B689B1A3DD40F4A13603AE00A4B5A6801
:1019A000134B1B689B1A34D4114A136031E000BFFB
:1019B000000C014000690008106900082469000853
:1019C00030690008406900080C0100203002002046
:1019D0000801002004010020180000200000F03F52
:1019E0002802002000000020606900082C0100206F
:1019F0000800002058690008580000200000F83F47
:101A0000B74C0022B74BD4E90001FEF78FFEC4E9C2
:101A10000001B54B00225A605BE1B34B5A68B34BEF
:101A20001B689B1AF5D4B14A1360F2E75FFA84FA97
:101A3000AF4B1B68D3F808B0AE4B1D682B195BF891
:101A40003300FEF7F1FC0022AB4BFEF78FFB0022C8
:101A5000AA4BFEF741FDA24BD3E9006732463B4655
:101A6000FEF73AFD02460B460020A549FEF77CFB37
:101A700080468946013425445BF83500FEF7D4FCE6
:101A800000229D4BFEF772FB00229C4BFEF724FDCB
:101A900002460B4630463946FEF71EFD02460B460F
:101AA00000209749FEF760FBFEF7EEFFC6B20AF191
:101AB0000105EDB240464946FEF7E6FF01230093DB
:101AC00033462A46C1B2504600F0E6FD7E2CADDD1D
:101AD00000F02EFD002000F04FFD854800F0BFFA19
:101AE000884B9B6813F0080F3FF480AE7E4A9368E2
:101AF000013393607C4B9B68012B3FF47BAE824BA0
:101B00009B6813F4006F3FF481AE774AD3680133CA
:101B1000D360754BDB68012B3FF47CAE7B4B1B68BD
:101B2000002B7FF48FAE774B9B6813F0100F3FF4C0
:101B300096AE6D4A1369013313616B4B1B69012B20
:101B40003FF491AEDFF8F081D8F80000FEF74AFCD0
:101B500002460B4600206E49FEF7E8FD04460D469E
:101B6000DFF890B1DBF800000130FEF74BFC2246B5
:101B70002B46FEF7B1FCFEF787FF664D024666492D
:101B8000284602F0BDFB002600962B460222314675
:101B9000012000F024FF2846FEF7DAFA0446800010
:101BA000C0B201304FF0010ACDF804A05B4F00979E
:101BB000052307223146C0B200F050FF0234D8F8A6
:101BC0000000FEF70FFC02460B4600205049FEF7CE
:101BD000ADFD80468946DBF80000FEF713FC0022CD
:101BE0004F4BFEF7C3FA02460B4640464946FEF706
:101BF00073FCFEF749FF02464A49284602F080FB83
:101C0000A000C0B2504400962B4602223146C0B21A
:101C100000F0E5FE2846FEF79BFA0444A000C0B29F
:101C20005044CDF804A00097052307223146C0B2E6
:101C300000F014FF02342C4A136851680B44916879
:101C40000B44D1680B4412691A443749284602F004
:101C500057FBA000C0B2504400962B4602223146EA
:101C6000C0B200F0BCFE2846FEF772FA04442F4BC7
:101C70001B68002B3FF402AE012B3FF410AE022B89
:101C80003FF41FAE032B3FF432AE284B1B68C3EB6F
:101C9000C3035A00264B13440122019200930723E9
:101CA0000E220021692000F0D9FE174B9B6813F427
:101CB000807F3FF42EAE0C4A136801331360124B41
:101CC0009B6813F4007F3FF458AE074A5368013312
:101CD0005360184B1C68002C00F086800024F5E649
:101CE000180000200000F83F0C01002058000020E0
:101CF0002C020020040100200000F03F008036404C
:101D000000004E40000C0140000801400801002086
:101D100000408F402C010020546900080C00002076
:101D20000000604058690008606900083002002027
:101D3000200000202802002028010020E5B2DFF862
:101D4000B8A0DAF800309B68DFF8B090D9F800202E
:101D5000224403EBC20393E80300FFF7D2FBFEF734
:101D600063FB0022224BFEF7B7FBDFF89480D8E933
:101D70000023FEF7B1FB02460B4600201D49FEF78B
:101D8000F3F906460F46DAF800309B680134D9F8BB
:101D90000020224403EBC20393E80300FFF7B1FBEA
:101DA000FEF742FB0022124BFEF796FBD8E9002318
:101DB000FEF792FB02460B4600200E49FEF7D4F9CF
:101DC000FEF762FE5FFA80F905F101085FFA88F814
:101DD00030463946FEF758FE012300934B464246F3
:101DE000C1B2284600F058FC7E2CA7DD70E600BF8B
:101DF0000080364000004E402C02002004010020EC
:101E00001800002001604260704710B582B002AB3C
:101E100003E9030000990846FEF7B4FF0446019960
:101E20000846FEF7AFFF01462046FEF7A3FEFEF789
:101E3000FBFA03F0DBF8FEF747FE02B010BD82B0FC
:101E400030B583B0044602A800E90600079308995C
:101E50000198FEF78FFE054607990098FEF78AFE67
:101E60002A4601462046FFF7CDFF204603B0BDE8D5
:101E7000304002B0704782B030B583B0044602A84B
:101E800000E90600079308990198FEF771FE0546E0
:101E900007990098FEF76CFE2A4601462046FFF798
:101EA000B1FF204603B0BDE8304002B0704782B0B9
:101EB0002DE9F04782B0044602A800E906000B9322
:101EC000009F0B9D29463846FEF75CFF8146019E28
:101ED000DDF8308041463046FEF754FF82464146E9
:101EE0003846FEF74FFF074631462846FEF74AFFC1
:101EF00001463846FEF73EFE054651464846FEF787
:101F000037FE2A4601462046FFF77CFF204602B0F6
:101F1000BDE8F04702B0704782B02DE9F04782B0CB
:101F2000054602A800E906000AAA42F8043F92E822
:101F30000300FFF76AFF0146FEF724FF0646FEF79F
:101F400073FA21A3D3E90023FEF738FD002834D12A
:101F5000009C0B9F39462046FEF714FF8246DDF8B1
:101F60000480DDF8309049464046FEF70BFF0146FD
:101F70005046FEF7FFFD824604F100414846FEF759
:101F800001FF044641463846FEF7FCFE0146204666
:101F9000FEF7F0FD3146FEF7A9FF044631465046F4
:101FA000FEF7A4FF224601462846FFF72BFF2846EE
:101FB00002B0BDE8F04702B07047054B054A212149
:101FC000054801F0A1FD00BFA0C2EBFE4B48B439AB
:101FD0007069000864690008746900082DE9F04719
:101FE000824616460846FEF71FFA04460D4630465E
:101FF000FEF71AFA8046894602F0EAFE02460B46D0
:1020000020462946FEF768FA06460F4640464946EE
:1020100002F026FF02460B4620462946FEF75CFAF0
:10202000FEF752FD044630463946FEF74DFD224686
:1020300001465046FFF7E6FE5046BDE8F08770B512
:1020400005460E46102001F0BBFD044605604660C3
:102050000821284601F076FDA060204670BD036887
:102060004BB110B50446986808B101F0B1FD206885
:1020700001F0AEFD10BD70472DE9F04186B0064677
:1020800006A800E906001F461968D6E90023C1E941
:102090000023002513E0B268EB001A4439688C680D
:1020A0001C440DF10808059B0093049B06CA40469A
:1020B000FFF732FF98E8030084E803000135D6E912
:1020C0000023E917994208BF9542E4D306B0BDE862
:1020D000F0812DE9F04F85B092469B460022002307
:1020E000CDE90023039030E0C2F1200EA2F1200CD4
:1020F000039820FA02F401FA0EFE44EA0E0421FAD3
:102100000CFC44EA0C0404F001084FF00009AAEBAF
:10211000020C0CF1FF3EACF1210CCEF1200009FACB
:102120000EF708FA0CFC47EA0C0728FA00F0074300
:1021300008FA0EF6DDE9008948EA060849EA0709C7
:10214000CDE90089013243F100035B4508BF5245E8
:10215000CAD3DDE9000105B0BDE8F08F2DE9F843F1
:102160000646884617460024002513E0D8F8089054
:102170003246F31720462946FFF7ABFF09EBC000B4
:102180003B689B6803EBC40303C883E80300013486
:1021900045F100050122B240D3179D4208BF944289
:1021A000E4D3BDE8F88300002DE9F04F97B00C466A
:1021B0000A929A46012303FA00F00246C317CDE9BA
:1021C0000823DAF80010D1E90001FEF72BFF804662
:1021D0008946002C07DB01230B9300230024CDE963
:1021E0000434D34659E04FF0FF330B93F5E7A6FBD9
:1021F0000845DDE90423121914460A9B9B68D200A6
:1022000003929A180DF1400A92E803008AE803004D
:10221000069A1444E400234412AA93E8030082E8D7
:102220000300139B009303460EAA06CA14A8FFF7E7
:102230003EFEDBF800309B68039A134403930CAD19
:10224000159B0093149B9AE806002846FFF7F7FDBC
:1022500095E80300039B83E80300DBF800309B68EC
:102260001C44159B0093149B9AE806002846FFF730
:1022700002FE95E8030084E80300013647F10007F9
:10228000DDE90834A74208BF9E42B0D3DDE904343B
:10229000013344F10004CDE904345FEA59044FEA04
:1022A0003803CDE90634DDE90412A24208BF9942A1
:1022B00028D2DDE90401FEF7D9F815A3D3E90023FC
:1022C000FEF70AF904460D460B98FEF79BF82246E6
:1022D0002B46FEF701F904460D46DDE90601FEF73F
:1022E000C5F802460B4620462946FEF71FFAFEF7C0
:1022F000EBFB02464FF07E510EA8FFF76FFE002663
:102300000027BDE717B0BDE8F08F00BFAFF3008036
:10231000182D4454FB21094008B513460A464FF0D6
:10232000FF31FFF741FF08BD2DE9F04782B0D0E94A
:102330000089B9F1000F08BFB8F1020F28D3824617
:102340000D4640464946FEF791F806460F4602F014
:10235000CFFD23A3D3E90023FEF7E8F9FEF76CFBDA
:1023600004462B682BB1D3E90023994508BF90455B
:1023700007D02846FFF773FE40464946FFF75FFE49
:1023800028602A4651462046FFF7E8FE013C0BE054
:10239000154B164A7421164801F0B6FB2A462968E7
:1023A0002046FFF7B9FF013C002CF7DAD5F8008092
:1023B0003046394602F01AFE6C46FEF785FB0022D5
:1023C00001462046FFF71EFD2B4694E806004046D6
:1023D000FFF752FE02B0BDE8F08700BFAFF3008008
:1023E000EF39FAFE422EE63F846900086C69000866
:1023F00074690008024B1860024B1970704700BFE7
:102400004002002044020020024B1860024B197069
:10241000704700BF380200203C020020024B1860C9
:10242000024B1970704700BF480200204C02002088
:1024300020B1012814D0022824D07047B1FA81F3CA
:102440005B09194A127802F110008340012914BF78
:10245000002101219140154A12680B431361704716
:10246000B1FA81F35B09124A127802F1100083403D
:10247000012914BF0021012191400E4A12680B432B
:1024800013617047B1FA81F35B090B4A127802F1CC
:1024900010008340012914BF002101219140074A07
:1024A000126819431161C8E744020020400200206D
:1024B0003C020020380200204C020020480200208C
:1024C00010B582B002AC04F8010D0120FFF7B0FF97
:1024D00000210220FFF7ACFF642201212046FFF714
:1024E00001F801210220FFF7A3FF02B010BD00B5E3
:1024F00083B08DF807008DF8061011460120FFF714
:1025000097FF00210220FFF793FF642201210DF1C4
:102510000700FEF7E7FF642201210DF10600FEF738
:10252000E1FF01210220FFF783FF03B05DF804FB08
:1025300038B500214020FFF7C3FF00250AE00D4B0E
:1025400003EBC4030121585DFFF7BAFF0134832C6C
:10255000F5DD0135072D07DCA5F148000021C0B2EB
:10256000FFF7AEFF0024F2E700214020FFF7A8FFAD
:1025700038BD00BF0C070020C0EB0020002107E0A1
:10258000064A02EBC102D0540133072BF8DD0131BA
:10259000832901DC0023F8E7704700BF0C07002007
:1025A00008B5002008E01C4A02EBC0020021D1540B
:1025B0000133072BF7DD0130832801DC0023F8E726
:1025C00000210846FFF734FF322000F0E5FC01212E
:1025D0000020FFF72DFF0021C820FFF771FF002129
:1025E000A120FFF76DFF00223F21A820FFF77FFF0A
:1025F00000220F21D920FFF77AFF00228021D52069
:10260000FFF775FF0021AF20FFF75AFF0020FFF70B
:10261000B3FFFFF78DFF08BD0C070020A0F13003CA
:10262000DBB2092B0BD9A0F14103DBB2052B08D992
:10263000A0F16103DBB2052B05D861387047303853
:102640007047413870474FF0FF3070473F291FD81F
:102650000130C0B283281BD810B46AB9CC0801F08D
:10266000070101228A400B4B03EBC000015D21EA08
:102670000201015510BC7047CC0801F0070101228E
:102680008A40044B03EBC000015D11430155F1E7A3
:10269000704700BF0C0700202DE9F04F83B00446BF
:1026A0000E46914601939DF830300093171A002F83
:1026B000B8BF7F42824215D94FF0010A019BA3EBBC
:1026C0000608B8F1000FB8BFC8F10008B3420CD932
:1026D0004FF0010B47450BDCC8F1000505EBD57544
:1026E0006D100AE04FF0FF3AE8E74FF0FF3BF1E7EB
:1026F00007EBD7756D1000E01D46009A3146204665
:10270000FFF7A4FF4C450CD07B42AB420FDAA5EBA0
:1027100008035444E4B24545EEDA3B445E44F6B265
:10272000EAE7019B9E42EFD103B0BDE8F08F2B4654
:10273000F1E700002DE9F04707460E469A46DDF81E
:102740002090BABB382939D87B2837D80F2B35DCF5
:102750000025A8461AE04D4B13F80A30203B03EB46
:1027600043035A004A4B134413F8058000240AE03F
:102770000122A2403119781902EA0802C9B2C0B296
:10278000FFF764FF0134072CF2DD0135052D15DC60
:10279000B9F1010FDFD0B9F1000FE7D13D4B13F8CC
:1027A0000A30203B03EB43035A00394B134413F820
:1027B0000580DBE7012A03D0022A46D0BDE8F08776
:1027C0003029FBD87928F9D8BAF10F0FF6DC0024AC
:1027D000A04628E02D4B13F80A30203B04EB0313EE
:1027E0002D4A12F8038000250CE00122AA4023F0B4
:1027F00007031944384402EA0802C9B2C0B2FFF71D
:1028000025FF0135072D0DDC634204F0070003F0BE
:10281000070358BF58427119C9B22346002CE4DAA5
:10282000E31DE2E701340F2CC8DCB9F1010FD1D070
:10283000B9F1000FD7D1174B13F80A30203B04EB46
:102840000313154A12F80380CDE73A29B6D87E283B
:10285000B4D8BAF10F0FB1DC00250DE00122A2407F
:102860003119781902EA0802C9B2C0B2FFF7EEFEC8
:102870000134042CF2DD0135022D9FDC0AEB4A0203
:10288000064B134413F805800024F2E75C00002097
:10289000986900086C000020C06B0008B071000847
:1028A0002DE9F84307460E4603F07F091ABB382985
:1028B00023D87B2821D8B9F11F0F1ED900250DE0A0
:1028C0000122A2403119781902EA0802C9B2C0B245
:1028D000FFF7BCFE0134072CF2DD0135052D0CDCC1
:1028E000A9F1200303EB43035A001E4B134413F8D2
:1028F00005800024EFE7012A01D0BDE8F8833029E4
:10290000FBD87928F9D8B9F11F0FF6D900241DE0BA
:102910000122AA4023F007031944384402EA0802BE
:10292000C9B2C0B2FFF792FE0135072D0DDC63423C
:1029300004F0070003F0070358BF58427119C9B2E9
:102940002346002CE4DAE31DE2E701340F2CD4DC4B
:10295000A9F1200304EB0313034A12F803800025B6
:10296000E3E700BF98690008C06B00082DE9F0415B
:102970000446884616461F46002502E0012E0CD06C
:1029800001357B5D63B1324641462046FFF788FF43
:10299000002EF3D10634E4B2F0E70834E4B2EFE7F6
:1029A000BDE8F0812DE9F0478146884692461E46F3
:1029B0009DF8207000250CE008EB050109EB0400F0
:1029C0003A46C9B2C0B2FFF741FE0134A642F3DC79
:1029D0000135AA4501DD0024F8E7BDE8F0872DE9BF
:1029E000F04F83B081468A4616461F46DDF830B068
:1029F000022A08D04FF000080EB94FF00608012E49
:102A000015D0002424E01846FDF7A2FB8300013313
:102A10000AF1FF3109F1FF3000220092DBB20722F8
:102A2000C9B2C0B2FFF7BEFF4FF00408E4E74FF0B1
:102A30000808E6E708FB0495EDB2FFF7EFFDCDF8D7
:102A400000B00346324651462846FFF773FE013474
:102A5000385D0028EED103B0BDE8F08F2DE9F047D6
:102A600006460F4615469946DDF820809DF824302D
:102A700083BB4FF0000A5DE007331DE003EBE20388
:102A800018F90320614204F0070301F0070158BF61
:102A90004B42C3F10703012101FA03F31A4007EB8C
:102AA0000A013019D2B2C9B2C0B2FFF7CFFD01346A
:102AB000A54209DD6B1EDFD4DB1003FB0AA322460F
:102AC000002CDBDAE21DD9E70AF1010AD14535DD38
:102AD0000024EDE74FF0000AF8E7073320E003EBAE
:102AE000E20318F80320614204F0070301F0070134
:102AF00058BF4B42C3F1070342FA03F313F0010F2F
:102B000007EB0A0106EB04000CBF01220022C9B248
:102B1000C0B2FFF79BFD0134A54209DD6B1EDCD47A
:102B2000DB1003FB0AA32246002CD8DAE21DD6E70D
:102B30000AF1010AD14501DD0024EDE7BDE8F08787
:102B400000B583B0214B9A6942F001029A619B69FA
:102B500003F001030193019B032000F085F800229C
:102B600011466FF00B0000F091F8002211466FF053
:102B70000A0000F08BF8002211466FF0090000F007
:102B800085F8002211466FF0040000F07FF8002263
:102B900011466FF0030000F079F8002211466FF043
:102BA000010000F073F8002211464FF0FF3000F0F2
:102BB0006DF8074B5A6822F0E0625A605A6842F09A
:102BC00000725A6003B05DF804FB00BF00100240C1
:102BD0000000014010B586B003681E4A934204D03D
:102BE0001D4A934220D006B010BD1C4B9A6942F496
:102BF00080529A619B6903F480530093009BA02349
:102C000002930223039303230593154C02A9204644
:102C100000F09CF84023029300230393049302A93D
:102C2000204600F093F8DEE70C4BDA6942F480426C
:102C3000DA61DB6903F480430193019B4FF4204385
:102C40000293022303930323059302A9054800F08E
:102C50007DF8C8E700300140003800400010024015
:102C600000080140000C0140074AD36823F4E063E8
:102C70001B041B0C000200F4E060184340F0BF602E
:102C800040F40030D060704700ED00E030B4174BE6
:102C9000DB68C3F30223C3F10704042C28BF042418
:102CA0001D1D062D18D9033B4FF0FF3505FA04F41E
:102CB00021EA0401994005FA03F322EA03031943C8
:102CC00000280BDB0901C9B200F1604000F561404A
:102CD00080F8001330BC70470023E5E700F00F00D8
:102CE0000901C9B2024B1954F4E700BF00ED00E03E
:102CF00014ED00E00138B0F1807F0AD2064B586035
:102D0000064AF02182F823100020986007221A60FA
:102D100070470120704700BF10E000E000ED00E0C8
:102D2000042805D0054A136823F004031360704794
:102D3000024A136843F004031360704710E000E098
:102D4000704708B5FFF7FCFF08BD0000F0B482B083
:102D500000263546A1E0002C59D0012C00D1CE68C8
:102D6000FF2B68D88446FF2B68D8AC00DCF8002025
:102D70000F27A74022EA070206FA04F42243CCF800
:102D800000204A6812F0805F00F086805E4A9469F5
:102D900044F001049461926902F001020192019AE7
:102DA000AC08A71C594A52F8272005F00307BF00BA
:102DB0004FF00F0C0CFA07FC22EA0C0C544A90421C
:102DC00042D002F5806290427FD002F5806290424C
:102DD0007DD002F58062904234D0042235E04D4F20
:102DE000BC4214D00BD94C4FBC4210D007F58037F1
:102DF000BC420CD0A7F58017BC42B1D107E0A7F5C3
:102E00008017BC4203D007F58037BC42A8D18C683C
:102E10007CB1012C08D042610826A1E7CE680836B3
:102E20009EE7CE680C369BE70261082698E70026ED
:102E300096E7042694E700F1040C94E7A5F1080452
:102E4000A40093E7032200E00022BA4042EA0C0209
:102E500002342E4F47F824204A6812F4803F38D0BD
:102E60002E4C22681A4322604A6812F4003F36D082
:102E70002A4C62681A4362604A6812F4801F34D098
:102E8000264CA2681A43A2604A6812F4001F32D08E
:102E9000224CE2681343E36001350F2D31D8012243
:102EA000AA400B6813409A42F6D14C68122CB8D055
:102EB00095D8022CB2D07FF64EAF032CB7D0112C90
:102EC0007FF44EAFCE6804364AE70122BDE7022206
:102ED000BBE7124C226822EA03022260C4E70F4CCF
:102EE000626822EA03026260C6E70C4CA26822EA2A
:102EF0000302A260C8E7094CE26822EA0303E36028
:102F0000CAE702B0F0BC7047001002400000014068
:102F100000080140000021100000311000040140B1
:102F200012B90904016170470161704710B5044688
:102F3000074B1868074BA3FB00308009FFF7DAFE48
:102F4000002221464FF0FF30FFF7A0FE002010BD09
:102F50007C000020D34D621008B5074A136843F087
:102F6000100313600320FFF77FFE0020FFF7DEFF52
:102F7000FFF7E6FD002008BD00200240024A13686A
:102F800001331360704700BF2C0B0020014B186801
:102F9000704700BF2C0B002030B583B00190FFF7C5
:102FA000F5FF0546019CB4F1FF3F00D00134FFF767
:102FB000EDFF401BA042FAD303B030BD0F4B1A689F
:102FC00042F001021A6059680D4A0A405A601A68B4
:102FD00022F0847222F480321A601A6822F480226D
:102FE0001A605A6822F4FE025A604FF41F029A6077
:102FF000044B4FF000629A60704700BF001002401F
:103000000000FFF800ED00E07047FEE7FEE7FEE796
:10301000FEE770477047704708B5FFF7AFFFFFF74F
:1030200090FE08BDF8B505460F4616461C463BE027
:103030002CB1FFF7ABFF069BC01AA04234D32A681D
:10304000536823F0E00353606B68B3F5827F0BD0C5
:10305000AB6AB3F5005F14D0012385F8513000232B
:1030600085F85030032027E0AB68B3F5004F02D05D
:10307000B3F5806FECD12A68136823F04003136026
:10308000E6E72A68136823F400531B041B0C136043
:103090002A68136843F400531360DDE70123B34249
:1030A00009D0B4F1FF3FC3D12B689B6837EA030313
:1030B000F4D00023F3E70020F8BD10B582B0044639
:1030C00000920B4600228021FFF7ACFF034610B9A7
:1030D000184602B010BD636D43F0200363650323FF
:1030E000F6E72DE9F04184B01E4690F85030012BF0
:1030F00000F0C88004460D469046012380F8503009
:10310000FFF744FF074694F85130DBB2012B0AD099
:103110000223012284F85120002284F8502018460E
:1031200004B0BDE8F081002D00F0A480B8F1000FDC
:1031300000F0A280032384F85130002363652563E7
:10314000A4F83480A4F83680A363A387E38763647C
:103150002364A368B3F5004F1BD023681A6812F0EC
:10316000400F03D11A6842F040021A60E368B3F5D9
:10317000006F14D063681BB1E38E9BB2012B3ED16C
:10318000236815F8012B1A73E38E013B9BB2E3868B
:1031900035E02268136843F480431360DDE7636819
:1031A0001BB1E38E9BB2012B0DD1236835F8022BA6
:1031B000DA60E38E013B9BB2E38604E0002E5DD033
:1031C000B6F1FF3F0FD1E38E9BB27BB323689A68C1
:1031D00012F0020FF2D035F8022BDA60E38E013BD9
:1031E0009BB2E386EFE7FFF7D1FEC01BB042EAD304
:1031F00003238EE7002E43D0B6F1FF3F0FD1E38EBD
:103200009BB29BB123689A6812F0020FF2D015F8B6
:10321000012B1A73E38E013B9BB2E386EFE7FFF7C6
:10322000B5FEC01BB042EAD3032372E700973346D2
:10323000012202212046FFF7F5FE08B1032368E7CB
:103240003A4631462046FFF738FF034618B120239F
:10325000636501235DE7A26832B903922268D168F1
:10326000039192680392039A626D002A3FF451AF72
:1032700001234EE701234CE701234AE7032348E7F4
:10328000032346E702234AE72DE9F04385B0994638
:103290000C9D90F85030012B00F0108104460F4631
:1032A0001646012380F85030FFF770FE804694F8F0
:1032B0005130DBB26268012B15D0B2F5827F0AD0A3
:1032C0000223012284F85120002284F8502018465D
:1032D00005B0BDE8F083A268002A40F0E780042B27
:1032E00001D00223EDE7002F00F0E280002E00F075
:1032F000E180B9F1000F00F0DF8094F85130DBB2CB
:10330000012B2BD000236365A663A4F83E90A4F89C
:103310003C902763A4F83690A4F834902364636447
:1033200023681A6812F0400F03D11A6842F0400275
:103330001A60E368B3F5006F14D063681BB1E38EC5
:103340009BB2012B07D1236817F8012B1A73E38E68
:10335000013B9BB2E3864FF0010961E0052384F84D
:103360005130CFE763681BB1E38E9BB2012B07D1CD
:10337000236837F8022BDA60E38E013B9BB2E386C9
:103380004FF0010913E0E38F9BB26BB123689A6899
:1033900012F0010F08D0DB6826F8023BE38F013BF7
:1033A0009BB2E3874FF00109B5F1FF3F1CD1E38EDB
:1033B0009BB21BB9E38F9BB2002B55D0B9F1000F24
:1033C000E1D0E38E9BB2002BDDD023689A6812F027
:1033D000020FD8D037F8022BDA60E38E013B9BB2A4
:1033E000E3864FF00009CEE7FFF7D0FDA0EB080021
:1033F000A842DCD3032364E7E38F9BB26BB123685D
:103400009A6812F0010F08D0DB683370E38F013B3C
:103410009BB2E38701364FF00109B5F1FF3F1BD1A5
:10342000E38E9BB213B9E38F9BB2EBB1B9F1000FFE
:10343000E2D0E38E9BB2002BDED023689A6812F0B4
:10344000020FD9D03A781A73E38E013B9BB2E38620
:1034500001374FF00009CFE7FFF798FDA0EB080018
:10346000A842DDD303232CE7CDF800802B460122B0
:1034700002212046FFF7D6FD08B1032321E742468B
:1034800029462046FFF719FE034618B1202363653D
:10349000012316E7A268002A7FF413AF0392226883
:1034A000D168039192680392039A0AE7022308E71E
:1034B000012306E7012304E7012302E7022306E7CD
:1034C00082B0084B1B68084AA2FB03235B0A00FB7F
:1034D00003F0019000BF019B5A1E0192002BF9D10D
:1034E00002B070477C000020D34D621070B582B0EE
:1034F0000446036813F0010F2CD0AB4B5B6803F05C
:103500000C03042B1DD0A84B5B6803F00C03082BA5
:1035100012D06368B3F5803F41D0002B55D103F141
:10352000804303F504331A6822F480321A601A6863
:1035300022F480221A6037E09B4B5B6813F4803FD3
:10354000E7D0994B1B6813F4003F03D06368002B4E
:1035500000F0AE81236813F0020F76D0924B5B68C7
:1035600013F00C0F5FD0904B5B6803F00C03082B3B
:1035700054D02369002B00F08A808C4B01221A6002
:10358000FFF704FD0546884B1B6813F0020F75D149
:10359000FFF7FCFC401B0228F5D903208BE1824A8F
:1035A000136843F480331360636843B3FFF7EEFCA2
:1035B00005467D4B1B6813F4003FCBD1FFF7E6FCBB
:1035C000401B6428F5D9032075E1B3F5A02F09D07D
:1035D000754B1A6822F480321A601A6822F480222D
:1035E0001A60E1E703F18043A3F53C331A6842F423
:1035F00080221A601A6842F480321A60D4E7FFF71A
:10360000C5FC0546684B1B6813F4003FA2D0FFF7CA
:10361000BDFC401B6428F5D903204CE1624B5B687C
:1036200013F4803FA5D1604B1B6813F0020F04D048
:103630002369012B01D001203DE15B4A136823F08F
:10364000F803616943EAC1031360236813F0080FAC
:1036500032D0A369002B5BD0554B01221A60FFF7D3
:1036600095FC0546504B5B6A13F0020F21D1FFF722
:103670008DFC401B0228F5D903201CE14A4A13683F
:1036800023F0F803616943EAC1031360DDE7474BA8
:1036900000221A60FFF77AFC0546434B1B6813F0C3
:1036A000020FD2D0FFF772FC401B0228F5D903208D
:1036B00001E10120FFF704FF236813F0040F00F07D
:1036C0009780394BDB6913F0805F33D1364BDA6971
:1036D00042F08052DA61DB6903F080530193019B71
:1036E0000125344B1B6813F4807F25D0E368012B40
:1036F00036D0002B4CD103F1804303F504331A6A12
:1037000022F001021A621A6A22F004021A622CE004
:10371000274B00221A60FFF739FC0546224B5B6AF3
:1037200013F0020FC8D0FFF731FC401B0228F5D977
:103730000320C0E00025D4E71E4A136843F48073D9
:103740001360FFF723FC06461A4B1B6813F4807FB7
:10375000CCD1FFF71BFC801B6428F5D90320AAE01D
:10376000114A136A43F001031362E36873B3FFF76E
:103770000DFC06460C4B1B6A13F0020F37D1FFF706
:1037800005FC801B41F288339842F3D9032092E074
:10379000052B11D0044B1A6A22F001021A621A6A30
:1037A00022F004021A62E0E70010024000004242E8
:1037B0008004424200700040414B1A6A42F0040209
:1037C0001A621A6A42F001021A62CEE7FFF7DEFBC4
:1037D00006463B4B1B6A13F0020F08D0FFF7D6FBDF
:1037E000801B41F288339842F3D9032063E0E5B9A6
:1037F000E369002B5ED0324A526802F00C02082ABC
:103800005BD0022B17D02F4B00221A60FFF7BEFBB4
:1038100004462B4B1B6813F0007F47D0FFF7B6FB25
:10382000001B0228F5D9032045E0254AD36923F07F
:103830008053D361DCE7234B00221A60FFF7A6FB1D
:1038400005461F4B1B6813F0007F06D0FFF79EFB59
:10385000401B0228F5D903202DE0236AB3F5803FF1
:103860001AD017494B6823F47413226A606A024322
:1038700013434B60134B01221A60FFF787FB04468A
:103880000F4B1B6813F0007F0ED1FFF77FFB001B6F
:103890000228F5D903200EE0094A536823F40033C7
:1038A000A1680B435360DCE7002004E0002002E045
:1038B000012000E0002002B070BD0120FBE700BF46
:1038C000001002406000424210B487B0164C94E8E9
:1038D0000F000DF1180C0CE90F00238AADF804302D
:1038E000124B5B6803F00C02082A1AD1C3F383421F
:1038F000624412F8100C13F4803F05D10C4B03FB0B
:1039000000F007B010BC7047084B5B68C3F340433E
:10391000634413F8142C074BB3FBF2F300FB03F0E2
:10392000EFE70448EDE700BFE06800080010024040
:1039300000093D0000127A00594B1B6803F0070391
:103940008B420CD2564A136823F007030B431360D3
:10395000136803F007038B4201D00120704770B554
:10396000036813F0020F06D04E4A536823F0F003A9
:103970008468234353600C460546036813F0010F27
:1039800052D04368012B23D0022B28D0454A12681D
:1039900012F0020F00F0828042494A6822F00302CE
:1039A00013434B60FFF7F2FA06466B68012B1DD0FC
:1039B000022B2AD03B4B5B6813F00C0F34D0FFF77F
:1039C000E5FA801B41F288339842F3D9032064E082
:1039D000344A126812F4003FDED101205DE0314A22
:1039E000126812F0007FD7D1012056E02D4B5B68A2
:1039F00003F00C03042B17D0FFF7C8FA801B41F229
:103A000088339842F2D9032047E0264B5B6803F0E5
:103A10000C03082B08D0FFF7B9FA801B41F288335A
:103A20009842F2D9032038E01D4B1B6803F00703CE
:103A3000A3420CD91A4A136823F0070323431360E7
:103A4000136803F00703A34201D0012025E02B688F
:103A500013F0040F06D0134A536823F4E063E968B7
:103A60000B4353602B6813F0080F07D00D4A5368BF
:103A700023F46053296943EAC1035360FFF724FF2D
:103A8000084B5B68C3F30313074AD35CD840074B6A
:103A900018600020FFF74AFA002070BD0120FCE703
:103AA0000020024000100240E07100087C0000206D
:103AB000014B1868704700BF7C000020002103E024
:103AC0000B4B5B58435004310A480B4B42189A4247
:103AD000F6D30A4A02E0002342F8043B084B9A421C
:103AE000F9D3FFF76BFA00F047F8FDF717FE7047C0
:103AF000B874000800000020E8000020E800002062
:103B0000340B0020FEE700001FB51C46094B05469C
:103B10001B68D86852B1084BCDE9013200912B46A1
:103B20002246064900F016F800F0CAFC044B1A467B
:103B3000F2E700BF80000020F0710008FD7100086E
:103B40002B720008024B0A460146186800F050B874
:103B5000800000200EB403B5014603AB054853F8BE
:103B6000042B0068019300F01FF902B05DF804EB2C
:103B700003B070478000002070B500250C4E0D4C3E
:103B8000A41BA410A54209D102F09EFE00250A4EF6
:103B90000A4CA41BA410A54205D170BD56F82530CF
:103BA00098470135EEE756F8253098470135F2E79A
:103BB000B0740008B0740008B0740008B474000851
:103BC000024B0146186800F06DB800BF800000206D
:103BD000024B0146186800F019B800BF80000020B1
:103BE00003460244934200D1704703F8011BF9E7F2
:103BF00038B502FB01F4214600F054F8054618B12F
:103C000022460021FFF7ECFF284638BD38B50546AF
:103C1000002943D051F8043C0C1F002BB8BFE41816
:103C200000F066FE1E4A1368104633B963601460E4
:103C30002846BDE8384000F05CBEA3420BD921689D
:103C40006218934201BF1A685B6852182260636071
:103C50000460EDE713465A680AB1A242FAD919681E
:103C60005818A0420BD120680144581882421960AC
:103C7000DED110685268014419605A60D8E702D951
:103C80000C232B60D4E7206821188A4201BF1168F9
:103C900052680918216062605C60C9E738BD00BFE6
:103CA0005002002070B5CD1C25F0030508350C2D01
:103CB00038BF0C25002D064601DBA94203D90C2391
:103CC0003360002070BD00F013FE214A14682146C5
:103CD00091B9204C23681BB9304600F001FB2060ED
:103CE0002946304600F0FCFA431C24D10C23304610
:103CF000336000F0FEFDE4E70B685B1B18D40B2B70
:103D00000FD90B60CC18CD50304600F0F2FD04F115
:103D10000B00231D20F00700C31AD3D05A42E250F3
:103D2000D0E74B688C4216BF636013600C46EBE72C
:103D30000C464968CCE7C41C24F00304A04205D01B
:103D4000211A304600F0CCFA0130CFD02560DBE7F5
:103D50005002002054020020936810B4013B002B55
:103D6000936007DA9469A34201DB0A2902D110BCEF
:103D700000F0E6BA1368581C10601970084610BCB1
:103D80007047F8B506460F461446D518AC4201D127
:103D9000002007E03A4614F8011B3046FFF7DCFF2D
:103DA000431CF3D1F8BD00002DE9F04F9DB00C4647
:103DB00017460393064618B183690BB900F078FCE7
:103DC0007B4B9C4257D17468A38918075DD5236942
:103DD000002B5AD00023099320238DF8293030235B
:103DE0004FF0010B8DF82A30B846454615F8013BD7
:103DF0000BB1252B54D1B8EB070A0BD053463A46EA
:103E000021463046FFF7BDFF013000F0C280099B1C
:103E10005344099398F80030002B00F0BA80002337
:103E20004FF0FF32CDE90523049307938DF853300B
:103E30001A93A846052218F8011B5E4800F026FDDB
:103E4000049B78BBD90644BF20228DF853201A0763
:103E500044BF2B228DF853202A782A2A2AD0A8463C
:103E600000200A25079A414611F8013B303B092BF7
:103E700069D960B324E0504B9C4201D1B468A3E7F8
:103E80004E4B9C4208BFF4689EE72146304600F046
:103E9000A9FA00289ED04FF0FF301DB0BDE8F08F8A
:103EA000A846A2E7434A4546801A0BFA00F0184399
:103EB0000490BEE7039A111D12680391002A01DBEA
:103EC000079204E0524243F002030792049398F8E9
:103ED00000302E2B0ED198F801302A2B38D1039BBD
:103EE00008F102081A1D1B680392002BB8BF4FF09F
:103EF000FF330593324D032298F80010284600F056
:103F0000C5FC40B14023401B03FA00F0049B08F1BC
:103F100001080343049398F800100622294808F189
:103F200001078DF8281000F0B1FC002837D0264B8F
:103F30001BBB039B073323F0070308330393099B41
:103F40004B44099350E705FB0232012088468AE77B
:103F500000230A25194608F101080593404610F888
:103F6000012B303A092A03D9002BC3D00591C1E7B0
:103F700005FB012101238046F0E703AB00932246B5
:103F8000124B04A93046AFF30080B0F1FF3F8146E9
:103F9000D5D1A3895B063FF57EAF09987DE703ABDA
:103FA00000932246094B04A9304600F087F8ECE75D
:103FB0008472000830720008A4720008647200085D
:103FC000367200083A72000800000000833D0008C5
:103FD0002DE9F04791461F468A680B6906469342D1
:103FE000B8BF1346C9F8003091F843200C46DDF8FD
:103FF000208012B10133C9F800302368990642BF0E
:10400000D9F800300233C9F80030256815F00605EC
:1040100007D104F1190AE368D9F800209B1AAB42D2
:1040200029DC94F843302268003318BF012392063C
:104030002ED404F1430239463046C047013021D026
:104040002368E56803F00603042B18BF0025D9F8A0
:1040500000204FF0000908BFAD1AA368226908BF0D
:1040600025EAE5759342C4BF9B1AED181A344D45F5
:104070001AD1002008E00123524639463046C04795
:10408000013003D14FF0FF30BDE8F0870135C2E7C2
:104090003020E11881F843005A1C94F8451022445E
:1040A000023382F84310C4E70123224639463046E2
:1040B000C0470130E6D009F10109D8E72DE9F04306
:1040C00001F1430C0C46097E85B06E291746064661
:1040D00098460C9A00F0B38022D8632936D00AD8CB
:1040E000002900F0B980582900F0838004F14205CE
:1040F00084F8421032E0642901D06929F6D12068A1
:104100001368050603F104012AD51B681160002B12
:1041100003DA2D225B4284F843206F480A2239E0FB
:10412000732900F09D8008D86F2920D07029DDD137
:10413000236843F02003236003E0752917D0782912
:10414000D4D17823654884F8453055E0136804F1EC
:104150004205191D1B68116084F8423001238CE070
:104160001B6810F0400F116018BF1BB2CFE7136837
:104170002568181D1060280601D51B6802E0680636
:10418000FBD51B886F2914BF0A2208225248002140
:1041900084F843106568002DA560C0F29580216801
:1041A00021F004012160002B3DD1002D40F08E80D4
:1041B0006546082A0BD12368DB0708D523696268A6
:1041C0009A42DEBF302305F8013C05F1FF35ACEB28
:1041D00005032361CDF800803B4603AA2146304603
:1041E000FFF7F6FE01304DD14FF0FF3005B0BDE8CE
:1041F000F083394884F84510136821681D1D1B6839
:1042000015600A060BD5CA0744BF41F020012160A2
:104210001BB9226822F0200222601022B7E74D0667
:1042200048BF9BB2EFE76546B3FBF2F102FB1133E7
:10423000C35C05F8013D0B460029F5D1B9E71368C9
:104240002568181D6169106028061B6801D5196072
:1042500002E06A06FBD51980002365462361B9E7B1
:104260001368191D11601D6862680021284600F05E
:104270000DFB08B1401B606063682361002384F874
:104280004330A7E723692A4639463046C047013004
:10429000AAD023689B0713D4E068039B9842B8BF59
:1042A0001846A3E701234A4639463046C047013045
:1042B0009AD00135E368039A9B1AAB42F2DCEBE734
:1042C000002504F11909F5E7002BACD1037804F1BE
:1042D000420584F842306CE74172000852720008CF
:1042E00038B50023054C05460846236002F0CEFA97
:1042F000431C02D1236803B12B6038BD300B002072
:104300000EB46FF0004100B59CB01DAB029006905A
:10431000079104910848094953F8042B0591006856
:1043200002A9019300F066FB0022029B1A701CB0E8
:104330005DF804EB03B07047800000200802FFFF27
:10434000F8B50E461446054618B183690BB900F05E
:10435000AFF9214B9C422AD16C68A369A360A38961
:104360001A072ED5236963B323692068F6B2C01AF1
:1043700063693746834204DC2146284600F02EF963
:1043800028BBA3680130013BA36023685A1C22604C
:104390001E706369834204D0A389DB0719D50A2EF6
:1043A00017D12146284600F019F990B10FE00B4BC8
:1043B0009C4201D1AC68D0E7094B9C4208BFEC6835
:1043C000CBE72146284600F00DF80028CCD04FF06E
:1043D000FF373846F8BD00BF84720008A472000899
:1043E00064720008324B70B51D6806460C4625B154
:1043F000AB6913B9284600F05BF92E4B9C420FD1F4
:104400006C68B4F90C309AB215072CD4D00611D4CC
:104410000922326043F04003A3814FF0FF303EE0B9
:10442000254B9C4201D1AC68EBE7244B9C4208BF72
:10443000EC68E6E7510712D5616B41B104F1440322
:10444000994202D03046FFF7E1FB00236363A38962
:1044500023F02403A3810023636023692360A389DD
:1044600043F00803A38123694BB9A38903F42073A4
:10447000B3F5007F03D02146304600F0C7F9A2898A
:1044800012F001030CD00023A36063695B42A361B7
:10449000236953B9B4F90C3013F08000BAD170BD60
:1044A000920758BF6369A360F2E70020F7E700BFF7
:1044B0008000002084720008A47200086472000862
:1044C00008B5062000F0B4FB012002F0F5F9000069
:1044D0008A892DE9F041054610070C4658D44B68EF
:1044E000002B05DC0B6C002B02DC0020BDE8F0810A
:1044F000E66A002EF9D0002312F480522F68216A58
:104500002B6032D0606DA3895A0705D56368C01A45
:10451000636B0BB1236CC01A00230246E66A216A62
:104520002846B047431CA38906D129681D2948D8CD
:10453000294ACA40D60744D5002262602269D904BC
:10454000226004D5421C01D12B6803B96065616B00
:104550002F600029C9D004F14403994202D02846B3
:10456000FFF754FB00206063C0E701232846B047F3
:10457000411CC8D12B68002BC5D01D2B01D0162B98
:1045800001D12F60B1E7A38943F04003A381ADE7D8
:104590000F69002FA9D0930718BF00230E6808BF2A
:1045A0004B69A6EB07080F608B60B8F1000F9CDD2C
:1045B00043463A46216A2846A66AB047002806DCE8
:1045C000A38943F04003A3814FF0FF308EE70744F7
:1045D000A8EB0008E9E700BF0100402038B50B69EF
:1045E00005460C46DBB118B183690BB900F060F8E1
:1045F0000C4B9C4209D16C68B4F90C307BB121465C
:104600002846BDE83840FFF763BF074B9C4201D105
:10461000AC68F1E7054B9C4208BFEC68ECE7002072
:1046200038BD00BF84720008A472000864720008DC
:10463000002310B50446C0E90033836081814366DE
:10464000C281C0E904338361194608225C30FFF758
:10465000C7FA054B24626362044BA362044BE36216
:10466000044B236310BD00BF694C00088B4C00084D
:10467000C34C0008E74C0008014900F085B800BFB2
:10468000DD45000870B568254A1E55430E4605F104
:104690007401FFF707FB044640B10021C0E9001692
:1046A0000C30A06005F16802FFF79AFA204670BD51
:1046B000836910B5044633BBC0E912330365124B5E
:1046C000124A1B688262984204BF0123836100F092
:1046D0001FF86060204600F01BF8A060204600F044
:1046E00017F80022E06004216068FFF7A1FF0122B3
:1046F0000921A068FFF79CFF02221221E068FFF762
:1047000097FF0123A36110BD2C72000879460008B1
:10471000F8B51B4B07461E68B36913B93046FFF75F
:10472000C7FF4836D6E90134013B03D5336833B1BE
:104730003668F7E7B4F90C506DB16834F4E704213A
:104740003846FFF79FFF30600028F1D10C23044664
:104750003B602046F8BD0B4B6566C4E90055A5607B
:10476000C4E90335C4E905550822294604F15C0073
:10477000FFF736FAC4E90D55C4E91255E9E700BF61
:104780002C7200080100FFFF2DE9F843804689469E
:10479000002600F1480414B93046BDE8F883D4E996
:1047A0000175013F01D52468F5E7AB89012B07D9D5
:1047B000B5F90E30013303D029464046C8470643B9
:1047C0006835EEE770B50E46B1F90E1096B00029C7
:1047D00014461D4607DA00232B60B3891A0610D44D
:1047E0004FF480630EE06A4600F0A4FA0028F2DB82
:1047F000019A02F47042A2F500535A425A412A60CB
:10480000EEE740230020236016B070BD8B8973B59E
:104810009D0706460C4607D504F147032360236134
:104820000123636102B070BD01AB6A46FFF7CAFFA6
:10483000009905463046FFF735FA48B9B4F90C300F
:104840009A05EFD423F0030343F00203A381E3E7C7
:104850000D4BB362A389206043F08003A381009BCA
:1048600020616361019B5BB1B4F90E10304600F02A
:1048700073FA28B1A38923F0030343F00103A38152
:10488000A3891D43A581CDE77946000810B5C9B2BB
:1048900002449042034601D1002303E01C7801301A
:1048A0008C42F6D1184610BD10B5431E0A44914201
:1048B00000D110BD11F8014B03F8014FF7E7884212
:1048C00010B501EB020307D8421E99420AD011F835
:1048D000014B02F8014FF8E78342F5D98118D21A4B
:1048E000D34200D110BD13F8014D01F8014DF7E797
:1048F00070477047F8B5074614460E4621B9BDE823
:10490000F8401146FFF7CEB922B9FFF77FF92546E7
:104910002846F8BD00F042FAA0420FD221463846A0
:10492000FFF7C0F905460028F2D031462246FFF7CE
:10493000BBFF31463846FFF769F9E9E73546E7E757
:104940002DE9F0478E6882469E420C469046994675
:1049500037D88A8912F4906F31D00223256809690B
:104960006F1A656905EB450595FBF3F509F1010340
:104970003B449D4238BF1D46530530D52946FFF7BD
:1049800091F9064650B90C234FF0FF30CAF80030B9
:10499000A38943F04003A381BDE8F0873A4621692B
:1049A000FFF782FFA38923F4906343F08003A38180
:1049B00026613E4426604E466561ED1BA5604E456E
:1049C00000D94E46324641462068FFF778FFA3687B
:1049D00000209B1BA36023681E442660DCE72A4658
:1049E000FFF788FF06460028E2D121695046FFF70D
:1049F0000DF9C8E72DE9F04F9DB003938B898046F0
:104A00001D060C4616460FD50B696BB94021FFF702
:104A100049F92060206128B90C23C8F800304FF014
:104A2000FF30C7E0402363610023099320238DF802
:104A3000293030234FF0010B8DF82A3037463D46A0
:104A400015F8013B0BB1252B3ED1B7EB060A0BD075
:104A50005346324621464046FFF772FF013000F0D0
:104A6000A480099B534409933B78002B00F09D8060
:104A700000234FF0FF32CDE90523049307938DF80F
:104A800053301A932F46052217F8011B4F48FFF7A2
:104A9000FDFE049BD0B9D90644BF20228DF85320D7
:104AA0001A0744BF2B228DF853202A782A2A15D0C2
:104AB0002F4600200A25079A394611F8013B303B62
:104AC000092B4DD9B8B10FE02F46B8E73F4A3D4614
:104AD000801A0BFA00F018430490D3E7039A111DD3
:104AE00012680391002A01DB079204E0524243F06E
:104AF0000203079204933B782E2B0CD17B782A2B50
:104B000033D1039B02371A1D1B680392002BB8BFD9
:104B10004FF0FF3305932E4D032239782846FFF7D7
:104B2000B5FE38B14023401B03FA00F0049B013767
:104B3000034304933978062226487E1C8DF82810FA
:104B4000FFF7A4FE002838D0234B13BB039B073389
:104B500023F0070308330393099B4B4409936DE744
:104B600005FB023201200F46A6E700230A2519465D
:104B700001370593384610F8012B303A092A03D93A
:104B8000002BC8D00591C6E705FB0121012307468C
:104B9000F0E703AB00932246104B04A94046AFF365
:104BA0000080B0F1FF3F8146D6D1A3895B063FF577
:104BB00036AF09981DB0BDE8F08F03AB00932246D5
:104BC000064B04A94046FFF779FAEAE7307200087D
:104BD000367200083A7200080000000041490008DF
:104BE0001F2938B504460D4604D9162303604FF03B
:104BF000FF3038BD426C12B152F821304BB920461B
:104C000000F030F82A4601462046BDE8384000F062
:104C100017B8012B0AD0591C03D1162303600120B9
:104C2000E7E70024284642F8254098470020E0E7BF
:104C3000024B01461868FFF7D3BF00BF8000002079
:104C400038B50023064C054608461146236001F09E
:104C500005FE431C02D1236803B12B6038BD00BFA1
:104C6000300B002001F0EABD10B50C46B1F90E1072
:104C700000F09CF80028ABBF636DA3891B1823F4D8
:104C80008053ACBF6365A38110BD2DE9F0411F4681
:104C90008B890546DB050C46164605D50223002206
:104CA000B1F90E1000F068F8A389324623F480535E
:104CB000A381B4F90E103B462846BDE8F04100F050
:104CC00017B810B50C46B1F90E1000F055F8431C9A
:104CD000A38915BF606523F4805343F48053A381F7
:104CE00018BFA38110BDB1F90E1000F013B8000079
:104CF00038B50546084611460022054C22601A4682
:104D000001F0D2FD431C02D1236803B12B6038BDF2
:104D1000300B002038B50023054C054608462360BB
:104D200001F07CFD431C02D1236803B12B6038BD28
:104D3000300B002038B50023064C054608461146C6
:104D4000236001F073FD431C02D1236803B12B6083
:104D500038BD00BF300B002038B50023054C054698
:104D60000846236001F072FD431C02D1236803B1A1
:104D70002B6038BD300B002038B50546084611467B
:104D80000022054C22601A4601F070FD431C02D13E
:104D9000236803B12B6038BD300B002051F8043C70
:104DA000181F002BBCBF0B58C018704738B50546FC
:104DB000084611460022054C22601A4601F05EFDAD
:104DC000431C02D1236803B12B6038BD300B002097
:104DD00030B5214A21F00043934287B01BDD1F4AC2
:104DE000934205DD02460B46FBF7BEF907B030BD26
:104DF00002AA00F025FB00F00300012811D00228D0
:104E000020D0C0B1DDE90423DDE9020101240094D2
:104E100001F042FBEAE70022002300F0F1FD07B0B9
:104E200030BD0090DDE90423DDE9020101F034FB2F
:104E300001F10041DAE7DDE90423DDE9020100F0D8
:104E4000DFFDD3E7DDE90423DDE9020100F0D8FD51
:104E500001F10041CAE700BFFB21E93FFFFFEF7FFF
:104E600030B5214A21F00043934287B01BDD1F4A31
:104E7000934205DD02460B46FBF776F907B030BDDD
:104E800002AA00F0DDFA00F00300012813D0022886
:104E90001FD0DDE90423A8B1DDE9020100F0B0FD77
:104EA00001F10041EAE7002400220023009401F010
:104EB000F3FA07B030BDDDE90423DDE9020100F0BB
:104EC0009FFDDBE70124DDE90201009401F0E4FA33
:104ED000D4E70124DDE90423DDE90201009401F0B7
:104EE000DBFA01F10041C9E7FB21E93FFFFFEF7F5A
:104EF0002DE9F0438BB004460D4600F0D5F8364B53
:104F0000804693F900608946731C0DD022462B46DB
:104F100020462946FBF77AFD30B9002200232046BF
:104F20002946FBF769FD20B1404649460BB0BDE874
:104F3000F0832A4B0890CDE90245CDE90445019361
:104F4000DEB94FF06046264F204629460022002356
:104F5000CDE90667FBF728FD002835D00223009332
:104F6000684601F0D9FBB8B1089BD3B9DDE90689E1
:104F7000404649460BB0BDE8F0830022194B20465D
:104F8000CDE90623294600220023FBF70DFD68B179
:104F900002239E420093E3D101F090FC22230360A0
:104FA000E2E701F08BFC089B0360DFE70123022EA0
:104FB00000930BD101F082FC212303600A4801F029
:104FC000ADFBCDE90601CFE701230093684601F070
:104FD000A3FB0028F2D1EDE7E4000020C472000832
:104FE000FFFFEFC70000F0FF806900082DE9F04FD8
:104FF0008BB004460D4600F041FC294B064693F960
:1050000000A00F46BAF1FF3F12D022462B462046A1
:105010002946FBF7FBFC834650B94FF000084FF0E0
:1050200000092046294642464B46FBF7C7FC20B9FB
:10503000304639460BB0BDE8F08F0122194BCDF850
:1050400020B0CDE90445CDE90245CDE90023BAF110
:10505000000F17D042464B4640464946FBF766FBD9
:10506000BAF1020FCDE906010ED101F027FC212390
:105070000360089B73B9DDE90667304639460BB01B
:10508000BDE8F08FCDE90689684601F045FB0028B0
:10509000EFD1EAE701F012FC089B0360EBE700BFE9
:1050A000E4000020C87200082DE9F04FB1F5801F20
:1050B00085B006460F460B4680F2D180024621F0AD
:1050C0000044224300F0DA800029C0F2E980002287
:1050D000D54BFBF701FA0B46D44A064693420F46DE
:1050E0006FF0350E00F3C180C3F3130505F5152CE1
:1050F0000CF6647C0CF4801C8CF07F5282F440121D
:105100001C1542EA0507A4F2FF3474440022C84B80
:105110003046394604EB1C54FBF726F8AB1CC3F3AE
:105120001303022B82468B464FF0000240F3AF8000
:105130004FF08043FBF71AF802460B46504659469B
:10514000FBF7F4FA064620460F46FBF75BF93246BA
:10515000CDE902013B4630463946CDE90067FBF711
:10516000BBF902460B4680468946FBF7B5F99AA380
:10517000D3E9002306460F46FBF7AEF998A3D3E91F
:105180000023FAF7F3FF32463B46FBF7A5F996A357
:10519000D3E90023FAF7EAFF32463B46FBF79CF9D6
:1051A00093A3D3E90023FAF7E1FF42464B46FBF70E
:1051B00093F991A3D3E900238046894630463946C6
:1051C000FBF78AF98EA3D3E90023FAF7CFFF324623
:1051D0003B46FBF781F98CA3D3E90023FAF7C6FF1E
:1051E00032463B46FBF778F90B46024649464046B5
:1051F000FAF7BCFFA5F5C223C5F5D725A3F27A437C
:1052000051351D43002D06460F4640F3878000228E
:10521000884B50465946FBF75FF952465B46FBF711
:105220005BF902460B468046894630463946FAF716
:105230009DFFDDE90023FBF74FF906460F46002CE2
:1052400040F0818002460B4640464946FAF78CFF03
:1052500002460B4650465946FAF786FF0BE0734A62
:105260004FF0000E93427FF73FAF32463B46304649
:105270003946FAF77BFF05B0BDE8F08F0022002326
:1052800000206D49FBF752FA05B0BDE8F08F00230E
:10529000FBF78AFB60B1002C7CD100200021EAE7FB
:1052A0000246FAF761FF00220023FBF73FFAE2E72C
:1052B00057A3D3E9002350465946FBF70DF90246A0
:1052C0000B4600205B49FAF74FFF524606460F4651
:1052D0005B4650465946FBF7FFF802460B46304600
:1052E0003946FBF7F9F806460F462CB32046FBF784
:1052F00089F849A3D3E9002380468946FBF7ECF8F7
:1053000047A3D3E9002304460D4640464946FBF730
:10531000E3F802460B46304639462CE002460B467F
:1053200050465946FAF720FFDDE90023FBF7D4F891
:1053300006460F46002C47D132463B46504659465A
:10534000FAF712FF97E734A3D3E90023DDE902015E
:10535000FBF7C2F832A3D3E9002304460D46DDE98A
:105360000201FBF7B9F832463B46FAF7FFFE024668
:105370000B4640464946FAF7F7FE52465B46FAF7B7
:10538000F3FE02460B4620462946FAF7EDFE05B02D
:10539000BDE8F08F2046FBF735F81FA3D3E90023C3
:1053A00006460F46FBF798F81DA3D3E900230446F1
:1053B0000D4630463946FBF78FF802460B4620462D
:1053C0002946FAF7D3FE56E7DDE9028912A3D3E9AD
:1053D00000234046494691E744523EDF12F1C23F66
:1053E000DE03CB966446C73F599322942449D23FAB
:1053F000935555555555E53F9FC678D0099AC33FFB
:10540000AF788E1DC571CC3F04FA97999999D93F11
:10541000555555555555D53F0000E0FE422EE63F07
:10542000763C7935EF39EA3D00005043FFFFEF7FCE
:105430000000F03F0000E03F000050C3000000000B
:105440002DE9F04FC84C21F00045A5428FB040F344
:105450008A801446C54A0E46954226DCB8A3D3E995
:105460000023002940F38A80FAF77EFEC04B0646EF
:105470009D420F4600F04681B3A3D3E90023FAF71B
:1054800073FE02460B463046C4E900233946FAF75C
:105490006BFEADA3D3E90023FAF766FE0127C4E94A
:1054A000020138460FB0BDE8F08FB24A954240F392
:1054B0008480B14A954200F31B812F15A7F216474D
:1054C000A5EB07518B468246FBF7B6FAFAF79AFF2F
:1054D0008046894642464B4650465946CDE90889A2
:1054E000FAF742FE0022A54BFAF7F6FF8B468246FA
:1054F000FBF7A2FAFAF786FF8046894642464B46FA
:1055000050465946CDE90A89FAF72EFE00229B4BF8
:10551000FAF7E2FF00220023CDE90C01FBF744FA81
:10552000002800F05F810023404649460022FBF737
:105530003BFA002814BF01230223022090493A4677
:10554000CDE90001214608A800F07EFB002E0746A9
:1055500010DA6268E36802F1004203F10043474257
:105560006260E36006E0002400250027C2E90245EE
:10557000C2E9000138460FB0BDE8F08FFAF7F6FD3A
:105580007B4B06469D420F4600F00E816EA3D3E989
:105590000023FAF7EBFD02460B4630463946C4E9D4
:1055A0000023FAF7E1FD68A3D3E90023FAF7DEFD53
:1055B0004FF0FF37C4E90201DCE701F023F864A3F0
:1055C000D3E9002380468946FAF786FF00226D4B17
:1055D000FAF7CCFDFBF730FA0746FAF713FF58A3AA
:1055E000D3E9002382468B46CDE904ABFAF774FF7A
:1055F00002460B4640464946FAF7B6FD52A3D3E9A8
:105600000023CDE9020150465946FAF765FF1F2FE6
:105610008046894602460B46DDE9020140F3B4802C
:10562000FAF7A2FD83468A462D15CAF30A53EB1AF0
:10563000102B40F3B48048A3D3E90023DDE9040133
:10564000FAF74AFF8046894602460B46DDE9020129
:10565000FAF78AFD82468B4602460B46DDE90201D7
:10566000FAF782FD42464B46FAF77EFD3CA3D3E9AA
:10567000002380468946DDE90401FAF72DFF424602
:105680004B46FAF771FD0B46024680468946504666
:105690005946CDE906ABFAF767FDC1F30A53ED1A97
:1056A000312D83468A4600F39F8002460B46DDE992
:1056B0000601C4E90023CDE90201DDE902015A46F1
:1056C0005346FAF751FD42464B46FAF74DFD024666
:1056D0000B46002EC4E90223BFF64CAF0AF100438B
:1056E00001F10041C4E900B3C4E902017F4241E78E
:1056F00002460B46FAF738FD0027C4E90201C4E967
:10570000000137E714A3D3E90023FAF72DFD14A312
:10571000D3E900230F460646FAF726FD02460B465C
:1057200030463946C4E90023FAF71EFD0CA3D3E93D
:105730000023FAF719FD0127C4E902011AE700BFA7
:1057400000004054FB21F93F3163621A61B4D03D3F
:1057500083C8C96D305FE43F0000601A61B4D03D7A
:105760007370032E8A19A33BFB21E93F7BD90240CA
:10577000FB21F93FFB213941FFFFEF7F0000704122
:10578000507300080000E03FFAF7EEFC3A4B7A1E37
:1057900053F822308346AB428A463FF445AF5A461F
:1057A0005346C4E9002388E72BA3D3E90023FAF783
:1057B000DDFC2BA3D3E900230F460646FAF7D6FCFF
:1057C00002460B4630463946C4E90023FAF7CCFCC2
:1057D00023A3D3E90023FAF7C9FC4FF0FF37C4E94C
:1057E0000201C7E60323A8E61FA3D3E90023DDE9EE
:1057F0000401FAF771FE8046894602460B46DDE950
:105800000601FAF7B1FC82468B4602460B46DDE9FB
:105810000601CDE902ABFAF7A7FC42464B46FAF780
:10582000A3FC13A3D3E9002380468946DDE90401E4
:10583000FAF752FE42464B46FAF796FC02460B46F2
:105840008046894650465946FAF78EFC83468A467A
:10585000A5E700BFAFF300800000601A61B4D03D3F
:105860007370032E8A19A33B0000002E8A19A33BF4
:10587000C14920259A837B39D07200085F4A2DE9FF
:10588000F0418A430D46074600F0948000290B46FC
:105890000446064654DD0F1500F0A780C3F313033A
:1058A000A7F2FF3743F48013F20FF80702EB43032C
:1058B0004FEA460503D5ED0F05EB4303B50000267F
:1058C0001622B4464FF400117F100CEB01009842F1
:1058D0004FEAD5744FEA450503DC1B1A00EB010CB7
:1058E0000E44013A04EB43034FEA5101EDD1104657
:1058F000964620244FF0004209E052D05B00013C64
:1059000003EBD5734FEA52024FEA450537D06345A2
:1059100002EB0E01F1DD002901EB020E0ADBE0468D
:10592000A3EB0C03A94288BF03F1FF33C4466D1AF1
:105930001044E3E7BEF1000FF1DB0CF10108EFE7E3
:1059400021F00042024329D0002945D10146CA0A6C
:10595000153B4905002AFAD012F4801001D048E026
:1059600030465200D40200F10106F9D5C6F12004F8
:1059700001FA06F6E1401F1A41EA02038EE72B43C3
:1059800024D14408731003F17F53F20703F5001389
:1059900048BF44F0004403EB075127463846BDE8B2
:1059A000F081A942AAD8002901EB020EC2DB984679
:1059B0000023BBE702460B46FAF78EFD3A462B461C
:1059C000FAF7D4FB07463846BDE8F081411C16BF04
:1059D000421C01365408D5E70246FAF7C5FB0246D9
:1059E0000B46FAF7A3FE0746D8E71A4621463B4680
:1059F000B2E70E4620244FF0FF30BBE70000F07FF7
:105A00002DE9F04F21F00046B6F1795F85B00C46E4
:105A100092469B4605466BDAFBF70EF8002800F02D
:105A2000E1802A46234628462146FAF755FD74A30D
:105A3000D3E9002380468946FAF74EFD72A3D3E9E5
:105A40000023FAF793FB42464B46FAF745FD70A355
:105A5000D3E90023FAF788FB42464B46FAF73CFDB0
:105A60006DA3D3E90023FAF781FB42464B46FAF7D0
:105A700033FD6BA3D3E90023FAF776FB42464B468E
:105A8000FAF72AFD68A3D3E90023FAF76FFB424631
:105A90004B46FAF721FDCDE900010022644B404658
:105AA0004946FAF719FDDDE9002306460F46404650
:105AB0004946FAF711FD5246804689465B4628461C
:105AC0002146FAF709FD02460B4640464946FAF7D9
:105AD0004BFB02460B4630463946FAF745FB024679
